{
  "contractName": "MultiPayouts",
  "abi": [
    {
      "constant": true,
      "inputs": [],
      "name": "PAYOUTS",
      "outputs": [
        {
          "name": "",
          "type": "uint256"
        }
      ],
      "payable": false,
      "stateMutability": "view",
      "type": "function",
      "signature": "0x2be52146"
    },
    {
      "constant": true,
      "inputs": [],
      "name": "paidPayouts",
      "outputs": [
        {
          "name": "",
          "type": "uint256"
        }
      ],
      "payable": false,
      "stateMutability": "view",
      "type": "function",
      "signature": "0x4a8a7ce3"
    },
    {
      "constant": true,
      "inputs": [],
      "name": "sender",
      "outputs": [
        {
          "name": "",
          "type": "address"
        }
      ],
      "payable": false,
      "stateMutability": "view",
      "type": "function",
      "signature": "0x67e404ce"
    },
    {
      "constant": true,
      "inputs": [],
      "name": "DeployTime",
      "outputs": [
        {
          "name": "",
          "type": "uint256"
        }
      ],
      "payable": false,
      "stateMutability": "view",
      "type": "function",
      "signature": "0x76c153ad"
    },
    {
      "constant": true,
      "inputs": [],
      "name": "INTERVAL",
      "outputs": [
        {
          "name": "",
          "type": "uint256"
        }
      ],
      "payable": false,
      "stateMutability": "view",
      "type": "function",
      "signature": "0x89facb20"
    },
    {
      "constant": true,
      "inputs": [],
      "name": "reciver",
      "outputs": [
        {
          "name": "",
          "type": "address"
        }
      ],
      "payable": false,
      "stateMutability": "view",
      "type": "function",
      "signature": "0xa4bbfb74"
    },
    {
      "constant": true,
      "inputs": [],
      "name": "amount",
      "outputs": [
        {
          "name": "",
          "type": "uint256"
        }
      ],
      "payable": false,
      "stateMutability": "view",
      "type": "function",
      "signature": "0xaa8c217c"
    },
    {
      "constant": true,
      "inputs": [],
      "name": "duePayouts",
      "outputs": [
        {
          "name": "",
          "type": "uint256"
        }
      ],
      "payable": false,
      "stateMutability": "view",
      "type": "function",
      "signature": "0xecca1874"
    },
    {
      "inputs": [
        {
          "name": "_sender",
          "type": "address"
        },
        {
          "name": "_reciver",
          "type": "address"
        },
        {
          "name": "_time",
          "type": "uint256"
        }
      ],
      "payable": true,
      "stateMutability": "payable",
      "type": "constructor",
      "signature": "constructor"
    },
    {
      "constant": false,
      "inputs": [],
      "name": "Withdraw",
      "outputs": [],
      "payable": true,
      "stateMutability": "payable",
      "type": "function",
      "signature": "0x57ea89b6"
    }
  ],
  "bytecode": "0x60806040526040516060806106678339810180604052606081101561002357600080fd5b81019080805190602001909291908051906020019092919080519060200190929190505050826000806101000a81548173ffffffffffffffffffffffffffffffffffffffff021916908373ffffffffffffffffffffffffffffffffffffffff16021790555081600160006101000a81548173ffffffffffffffffffffffffffffffffffffffff021916908373ffffffffffffffffffffffffffffffffffffffff160217905550804201600281905550600a348115156100de57fe5b04600481905550505050610570806100f76000396000f3fe608060405260043610610099576000357c0100000000000000000000000000000000000000000000000000000000900463ffffffff1680632be521461461009e5780634a8a7ce3146100c957806357ea89b6146100f457806367e404ce146100fe57806376c153ad1461015557806389facb2014610180578063a4bbfb74146101ab578063aa8c217c14610202578063ecca18741461022d575b600080fd5b3480156100aa57600080fd5b506100b3610258565b6040518082815260200191505060405180910390f35b3480156100d557600080fd5b506100de61025d565b6040518082815260200191505060405180910390f35b6100fc610263565b005b34801561010a57600080fd5b506101136104e2565b604051808273ffffffffffffffffffffffffffffffffffffffff1673ffffffffffffffffffffffffffffffffffffffff16815260200191505060405180910390f35b34801561016157600080fd5b5061016a610507565b6040518082815260200191505060405180910390f35b34801561018c57600080fd5b5061019561050d565b6040518082815260200191505060405180910390f35b3480156101b757600080fd5b506101c0610512565b604051808273ffffffffffffffffffffffffffffffffffffffff1673ffffffffffffffffffffffffffffffffffffffff16815260200191505060405180910390f35b34801561020e57600080fd5b50610217610538565b6040518082815260200191505060405180910390f35b34801561023957600080fd5b5061024261053e565b6040518082815260200191505060405180910390f35b600a81565b60055481565b600160009054906101000a900473ffffffffffffffffffffffffffffffffffffffff1673ffffffffffffffffffffffffffffffffffffffff163373ffffffffffffffffffffffffffffffffffffffff16141515610328576040517f08c379a000000000000000000000000000000000000000000000000000000000815260040180806020018281038252601a8152602001807f4f6e6c79206f776e65722063616e2073656e6420616d6f756e7400000000000081525060200191505060405180910390fd5b600254421115156103a1576040517f08c379a00000000000000000000000000000000000000000000000000000000081526004018080602001828103825260098152602001807f546f6f206561726c79000000000000000000000000000000000000000000000081525060200191505060405180910390fd5b600a60055410151561041b576040517f08c379a000000000000000000000000000000000000000000000000000000000815260040180806020018281038252600f8152602001807f4e6f207061796f757473206c656674000000000000000000000000000000000081525060200191505060405180910390fd5b6000600a600254420381151561042d57fe5b0490506005548103600381905550600a600554600354011161045157600354610458565b600554600a035b600381905550600354600560008282540192505081905550600160009054906101000a900473ffffffffffffffffffffffffffffffffffffffff1673ffffffffffffffffffffffffffffffffffffffff166108fc600454600354029081150290604051600060405180830381858888f193505050501580156104de573d6000803e3d6000fd5b5050565b6000809054906101000a900473ffffffffffffffffffffffffffffffffffffffff1681565b60025481565b600a81565b600160009054906101000a900473ffffffffffffffffffffffffffffffffffffffff1681565b60045481565b6003548156fea165627a7a72305820bd5afa71509b683f2e05b8cd9c0c121fe5207b2e22e735deb6fec9573299bc970029",
  "source": "// SPDX-License-Identifier: MIT\r\npragma solidity >=0.4.22 <0.9.0;\r\n\r\ncontract MultiPayouts{\r\n\r\n\taddress public sender;\r\n\taddress payable public  reciver;\r\n\tuint public DeployTime;\r\n\tuint public duePayouts;\r\n\tuint public amount;\r\n\tuint constant public PAYOUTS = 10;\r\n\tuint constant public INTERVAL = 10;\r\n\tuint public paidPayouts;\r\n\r\n\tconstructor (address _sender, address payable _reciver, uint _time) payable public{\r\n\r\n\t\tsender = _sender;\r\n\t\treciver = _reciver;\r\n\t\tDeployTime = block.timestamp + _time;\r\n\t\tamount = msg.value / PAYOUTS ;\r\n\t}\r\n\r\n\r\n\t//to withdraw\r\n\tfunction Withdraw() public payable{\r\n\t\trequire(msg.sender == reciver , 'Only owner can send amount');\r\n\t\trequire(block.timestamp > DeployTime, 'Too early');\r\n\t\trequire(paidPayouts < PAYOUTS, 'No payouts left');\r\n\t\tuint eligiblePayouts = (block.timestamp - DeployTime) / INTERVAL;\r\n\t\tduePayouts = eligiblePayouts - paidPayouts;\r\n\t\tduePayouts = duePayouts + paidPayouts > PAYOUTS ? PAYOUTS - paidPayouts : duePayouts;\r\n\t\tpaidPayouts += duePayouts;\r\n\r\n\r\n\t\treciver.transfer(duePayouts * amount);\r\n\t}\r\n\r\n}",
  "sourcePath": "C:/Users/dpake/OneDrive/Desktop/Project/Block chain/Dapps 30/Day9- Deed MultiPayouts/contracts/MultiPayouts.sol",
  "compiler": {
    "name": "solc",
    "version": "0.5.0+commit.1d4f565a.Emscripten.clang"
  },
  "schemaVersion": "3.0.1",
  "updatedAt": "2022-06-29T08:30:45.908Z",
  "devdoc": {
    "methods": {}
  },
  "userdoc": {
    "methods": {}
  }
}